:100000000C942A000C9447000C9447000C94470071
:100010000C9447000C9447000C9447000C94470044
:100020000C9447000C9447000C9447000C94470034
:100030000C9447000C9447000C9447000C94470024
:100040000C9447000C9447000C9447000C94470014
:100050000C94470011241FBECFE5D8E0DEBFCDBF12
:1000600010E0A0E6B0E0E4E8F4E002C005900D92F4
:10007000A439B107D9F720E0A4E9B0E001C01D928E
:10008000A639B207E1F70E94EF010C9440020C94EC
:10009000000081B38C6581BB87B3806F87BB84B35D
:1000A0008FEF84BB81B38C7781BB8AB3807F8ABB9F
:1000B00081B38D7D81BB089580E487B987E886B9D7
:1000C000089597B1907F892B87B98AE18A95F1F7D6
:1000D00000C0369A3699FECF84B195B10895883024
:1000E000E0F425B380FB992795F9207C922B95BBF2
:1000F00028B3982F969596959295990F907E2F708C
:10010000922B81FB882784F9892B88BB85E88A9507
:10011000F1F7000080E00C94610080E090E0089529
:100120008827CB99839508958827CA998395089540
:100130008827C9998395089589B381700895482FB8
:1001400020B330E002C0359527958A95E2F720FD6F
:1001500012C08FE39CE90197F1F700C0000090B353
:10016000892F90E002C0959587954A95E2F7809592
:1001700090958170089580E0089582B3837F82BB5B
:1001800088B38F7388BB85B3807285BB0895939ABB
:100190009298C69AC798A89AA998AE9AAF980895C7
:1001A000CF92DF92EF92FF920F931F93CF93DF9343
:1001B000CDB7DEB760970FB6F894DEBF0FBECDBFE8
:1001C000CE0101967C0100E010E06C01812F0E94BD
:1001D0006F009C01F701819391937F01F601E00F7D
:1001E000F11DE00FF11D808191818217930708F4C2
:1001F000012F1F5F183051F7802F60960FB6F894CB
:10020000DEBF0FBECDBFDF91CF911F910F91FF9049
:10021000EF90DF90CF900895969A2AE12A95F1F712
:1002200000C0969841E050E002C0440F551F8A95E7
:10023000E2F720B330E024233523232BD1F380E0F1
:1002400090E020B330E024233523232B31F46AE3FC
:1002500070E00E942C02CB010895019622E02A95BD
:10026000F1F700C0EECF85E00E949F00811539F0C4
:1002700080919500811110C081E08093950085E008
:100280000E949F00811539F081E0909194009111B6
:1002900080E080939400089510929500F0CFCF9362
:1002A0000E94D000C82F0E949000811569F00E9422
:1002B000BD002FEF81EE94E0215080409040E1F7A7
:1002C00000C00000CF910895C350C33018F0CF9103
:1002D0000C94C700CF910C94BD0080E00E940C01EB
:1002E000449710F40C94BD000C94C70085B3836050
:1002F00085BB8DE08A95F1F70000A9988DE08A957D
:10030000F1F70000A8980895A9988DE08A95F1F773
:100310000000A89A8DE08A95F1F70000A99A8DE077
:100320008A95F1F70000089598E087FF1AC0A99A0E
:100330002DE02A95F1F70000A89A2DE02A95F1F713
:100340000000A898880F9A9581F7A99A8DE08A9560
:10035000F1F70000A89A2DE02A95F1F70000A8987F
:100360000895A998E5CF84B3836084BB2FEF80E71D
:1003700092E0215080409040E1F700C000000E94D0
:10038000760188E70E94940180E00E9494018EEA41
:100390000E94940186EA0E9494018FEA0E949401CF
:1003A0000C9484010C94B3010F931F93CF93DF93AC
:1003B0008C010E94760188E70E94940180E40E94EB
:1003C0009401E8018991811106C0DF91CF911F91BD
:1003D0000F910C9484010E949401F4CF08950E941F
:1003E00049000E945C000E94B30178940E9433018E
:1003F0000E94D20180919500811125C080E690E095
:100400000E94D40180919400811501F18EE790E063
:100410000E94D4010E94EE0181E00E949F0081159C
:1004200059F00E94BD002FEF82E597E021508040F7
:100430009040E1F700C0000080919500811109C053
:100440000E944F01D3CF8FE690E0DACF88E890E0AA
:10045000DFCF0E946D01CACFAA1BBB1B51E107C0B1
:10046000AA1FBB1FA617B70710F0A61BB70B881F44
:10047000991F5A95A9F780959095BC01CD010895D3
:04048000F894FFCF1E
:10048400526F6C653A2041747461636B65720052FB
:100494006F6C653A20446566656E646572004465F8
:1004A4006275673A204F4E0044656275673A204F83
:0404B40046460000B8
:00000001FF
